:100000000C9428010C9459010C9459010C94590139
:100010000C9459010C9459010C9459010C945901F8
:100020000C9459010C9459010C9459010C945901E8
:100030000C9459010C9459010C9459010C945901D8
:100040000C9459010C9459010C9459010C945901C8
:100050000C9459010C9459010C9459010C94DA0335
:100060000C9459010C944E040C9424040C945901E2
:100070000C9459010C9459010C9459010C94590198
:100080000C9459010C9459010C9459010C94590188
:100090000C9459010C9459010C9459010C94590178
:1000A0000C9459010C9459010C9459010C94590168
:1000B0000C9459010C9459010C9459010C94590158
:1000C0000C9459010C9459010C9459010C94590148
:1000D0000C9459010C9459010C9459010C94590138
:1000E0000C9459010C9478020C9486020C940B0326
:1000F0000C94E1010C94A6010C94C9010C94D70155
:100100000C94B1010C94D3010C94BB010C94B70175
:100110000C94DD010C94C5010C9415020C9424027E
:100120000C94CF010C948B010C94BE020C94AF067E
:100130000C9490010C94A2010C94AA010C94E80177
:100140000C94C1010C94AE01000021002400270092
:100150002A002D00300033000101000004010701D6
:100160000A0100002200250028002B002E0031008B
:10017000340002010000050108010B010505050519
:10018000070508080808020202020A0A080804040F
:10019000040401010101010101010303030303033D
:1001A0000303040707070C0C0C0C0C0C0C0C0202CC
:1001B000020206060606060606060B0B0B0B0B0BC9
:1001C0000B0B010210202008081020401020408056
:1001D000020102010804020101020408102040800B
:1001E0008040201008040201800402018040201099
:1001F00008040201080402010102040810204080E2
:10020000010204081020408000000A0B02090C0DB6
:100210000E080703040100000000000000000000B9
:1002200000000000000000000000000000000000CE
:10023000000000001211100000000000000000008B
:100240000000000000000000000000000000AF06F9
:1002500011241FBECFEFD1E2DEBFCDBF00E00CBF47
:1002600023E0ACE7B2E001C01D92A632B207E1F78D
:1002700012E0A0E0B2E0EAE0F2E100E00BBF02C071
:1002800007900D92AC37B107D9F711E0C8E2D1E081
:1002900000E006C021970109802FFE010E94DC06C4
:1002A000C732D10780E00807A9F70E9484040C94A4
:1002B00003090C940000282F30E0F901E85FFD4F9E
:1002C0009491F901EE53FE4F449124583E4FF901A9
:1002D0002491222309F435C0992311F191509231D0
:1002E000F8F4E92FF0E08827E758FE4F8F4F0C9481
:1002F000DC06AA01AE018B01A201A6019001B101A9
:10030000B701BB01C101C501C901CF01D3019001F2
:10031000D701DD01E101809180008F77809380001B
:10032000E22FF0E0EE0FFF1FEE59FE4FA591B491C2
:100330008FB7F894EC91611148C040954E234C93CF
:100340008FBF0895809180008F7DE8CF80918000DD
:10035000877FE4CF84B58F7784BDE2CF84B58F7D6E
:10036000FBCF8091B0008F778093B000D9CF809180
:10037000B0008F7DF9CF809190008F7780939000AF
:10038000CFCF809190008F7DF9CF80919000877FB3
:10039000F5CF8091A0008F778093A000C1CF80918E
:1003A000A0008F7DF9CF8091A000877FF5CF80914D
:1003B00020018F7780932001B3CF809120018F7D22
:1003C000F9CF80912001877FF5CF4E2BB8CF0895CC
:1003D000AF92BF92CF92DF92EF92FF920F931F9353
:1003E000CF93DF936C017B018B01040F151FEB0191
:1003F0005E01AE18BF08C017D10759F06991D60148
:10040000ED91FC910190F081E02DC6011995892BA9
:1004100079F7C501DF91CF911F910F91FF90EF9078
:10042000DF90CF90BF90AF900895FC01538D448D25
:10043000252F30E0842F90E0821B930B541710F08F
:10044000CF96089501970895FC01918D828D98179C
:1004500061F0A28DAE0FBF2FB11D5D968C91928D74
:100460009F5F9F73928F90E008958FEF9FEF0895A5
:100470002FB7F8948091810290918202A09183021B
:10048000B09184022FBF80938D0290938E02A0932F
:100490008F02B093900285E892E00E94240297FFB9
:1004A00026C02FB7F8948091810290918202A0918A
:1004B0008302B09184022FBF40918D0250918E0231
:1004C00060918F0270919002841B950BA60BB70B65
:1004D0004091890250918A0260918B0270918C0246
:1004E00084179507A607B707B0F28FEF9FEF08951F
:1004F000FC01918D828D981731F0828DE80FF11DEE
:10050000858D90E008958FEF9FEF0895FC01918D08
:10051000228D892F90E0805C9F4F821B91098F7301
:100520009927089585E892E00E94860221E0892BB0
:1005300009F420E0822F0895FC01A48DA80FB92FA3
:10054000B11DA35ABF4F2C91848D90E001968F73FB
:100550009927848FA689B7892C93A089B1898C911A
:10056000837080648C93938D848D981306C0028869
:10057000F389E02D80818F7D80830895EF92FF9233
:100580000F931F93CF93DF93EC0181E0888F9B8DB6
:100590008C8D98131AC0E889F989808185FF15C070
:1005A0009FB7F894EE89FF896083E889F989808193
:1005B0008370806480839FBF81E090E0DF91CF9162
:1005C0001F910F91FF90EF900895F62E0B8D10E084
:1005D0000F5F1F4F0F731127E02E8C8D8E110CC0F3
:1005E0000FB607FCFACFE889F989808185FFF5CF3E
:1005F000CE010E949C02F1CFEB8DEC0FFD2FF11D7F
:10060000E35AFF4FF0829FB7F8940B8FEA89FB897A
:1006100080818062CFCFCF93DF93EC01888D8823D8
:10062000B9F0AA89BB89E889F9898C9185FD03C055
:10063000808186FD0DC00FB607FCF7CF8C9185FF3A
:10064000F2CF808185FFEDCFCE010E949C02E9CFE1
:10065000DF91CF91089580E090E0892B29F00E94EE
:10066000920281110E94000080E090E0892B49F005
:1006700080E090E0892B29F00E94000081110E9407
:10068000000080E090E0892B49F080E090E0892B29
:1006900029F00E94000081110E94000080E090E09B
:1006A000892B49F080E090E0892B29F00E9400001E
:1006B00081110C94000008950F931F93CF93DF9343
:1006C0008C01EB01FC01808191810097E1F0688150
:1006D000798161157105A9F0428153812C813D8199
:1006E0004217530770F00E94FC088C819D81F8012D
:1006F000958384831D821C82DF91CF911F910F917E
:1007000008950E94800788819981F80191838083F0
:100710008A819B81938382838C819D81958384834D
:10072000198218821B821A82E5CFFC018081918197
:10073000009711F00C9480070895FC012481358105
:10074000232B39F421E0FB018081882349F020E04C
:1007500007C0808191810E94F30821E0892BB9F7BD
:10076000822F08950F931F93CF93DF93EC0188811D
:100770009981009759F02A813B812617370730F07D
:1007800081E0DF91CF911F910F9108958B016F5FF1
:100790007F4F0E940908009759F0998388831B8333
:1007A0000A832C813D81232B59F7FC011082E8CF6D
:1007B00080E0E7CF1F920F920FB60F9211242F9374
:1007C0003F938F939F93AF93BF93809181029091BA
:1007D0008202A0918302B09184023091800223E0D2
:1007E000230F2D3758F50196A11DB11D20938002CE
:1007F0008093810290938202A0938302B09384023B
:1008000080917C0290917D02A0917E02B0917F0246
:100810000196A11DB11D80937C0290937D02A0934F
:100820007E02B0937F02BF91AF919F918F913F91D4
:100830002F910F900FBE0F901F90189526E8230F51
:100840000296A11DB11DD2CF1F920F920FB60F922B
:1008500011240BB60F922F933F934F935F936F9397
:100860007F938F939F93AF93BF93EF93FF9385E80D
:1008700092E00E949C02FF91EF91BF91AF919F91F6
:100880008F917F916F915F914F913F912F910F9039
:100890000BBE0F900FBE0F901F9018951F920F92D6
:1008A0000FB60F9211240BB60F922F938F939F9335
:1008B000EF93FF93E0919502F09196028081E09191
:1008C0009B02F0919C0282FD1DC0908180919E024E
:1008D0008F5F8F7320919F02821741F0E0919E02FB
:1008E000F0E0EB57FD4F958F80939E02FF91EF91C3
:1008F0009F918F912F910F900BBE0F900FBE0F9075
:100900001F9018958081F2CFCF93DF93CDB7DEB7DC
:100910002E970FB6F894DEBF0FBECDBF789484B586
:10092000826084BD84B5816084BD85B5826085BDEB
:1009300085B5816085BD80916E00816080936E0079
:10094000109281008091810082608093810080916B
:10095000810081608093810080918000816080931C
:1009600080008091B10084608093B1008091B000DC
:1009700081608093B00080919100826080939100AB
:1009800080919100816080939100809190008160BE
:10099000809390008091A10082608093A10080915B
:1009A000A10081608093A1008091A000816080936C
:1009B000A00080912101826080932101809121011A
:1009C00081608093210180912001816080932001CA
:1009D00080917A00846080937A0080917A008260AE
:1009E00080937A0080917A00816080937A00809170
:1009F0007A00806880937A001092C100E5ECF1E003
:100A00002491EFE7F1E08491882399F090E0880F3A
:100A1000991FFC01E85BFE4FA591B491FC01EE59D2
:100A2000FE4F859194918FB7F894EC91E22BEC9363
:100A30008FBFE0919502F091960282E08083E09171
:100A40009102F09192021082E0919302F09194024F
:100A50008FEC808310929D02E0919902F0919A02AE
:100A600086E08083E0919702F09198028081806116
:100A70008083E0919702F091980280818860808362
:100A8000E0919702F0919802808180688083E091E4
:100A90009702F091980280818F7D808360E083E0EF
:100AA0000E945B0118861F821A8619861C861B8687
:100AB00070E060E0CE0107960E94B2032F81388576
:100AC00081114DC02115310519F0C9010E9480071F
:100AD00018861F821C861B861A86198685E892E076
:100AE0000E948602892BD1F31A8219821C821B82F2
:100AF0001E821D8270E060E0CE0101960E94B2036A
:100B000029813A81811133C02115310519F0C901BC
:100B10000E9480071A8219821E821D821C821B82FB
:100B20000E94380297FD2BC08D871E860D811E8185
:100B30000F5F1F4FB801CE0101960E94B2038823B8
:100B400079F329813A818D819E81BE01635F7F4F58
:100B5000820F931F0E94FC081E830D83E1CF1C8629
:100B60001B866FE472E0C9010E94FC08B7CF1E82A9
:100B70001D826FE472E0C9010E94FC08D1CFBE0162
:100B80006F5F7F4FCE0107960E945C03CE010196F6
:100B90000E94950368E172E0CE0107960E949D03D2
:100BA000811139C06FE272E0CE0107960E949D0369
:100BB000811131C06BE172E0CE0107960E949D0366
:100BC000811129C063E472E0CE0107960E949D0363
:100BD000811121C06FE172E0CE0107960E949D0352
:100BE000811119C068E272E0CE0107960E949D0350
:100BF000811111C062E372E0CE0107960E949D034D
:100C0000811109C06CE372E0CE0107960E949D033A
:100C1000882309F49DC060E083E00E945B0185E8C1
:100C200092E00E948602892BD1F31A8219821C82DB
:100C30001B821E821D8270E060E0CE0101960E9440
:100C4000B20329813A8181112BC02115310519F098
:100C5000C9010E9480071A8219821E821D821C828D
:100C60001B820E94380297FD23C08D871E860D814E
:100C70001E810F5F1F4FB801CE0101960E94B20383
:100C8000882379F329813A818D819E81BE01635F3A
:100C90007F4F820F931F0E94FC081E830D83E1CFBC
:100CA0001E821D826FE472E0C9010E94FC08D9CF48
:100CB000BE016F5F7F4FCE0107960E945C03CE019D
:100CC00001960E94950367E472E0CE0107960E94A8
:100CD0009D03811138C061E672E0CE0107960E9443
:100CE0009D03811130C06BE472E0CE0107960E9433
:100CF0009D03811128C067E772E0CE0107960E942C
:100D00009D03811120C060E572E0CE0107960E942C
:100D10009D03811118C06AE572E0CE0107960E941A
:100D20009D03811110C065E672E0CE0107960E9416
:100D30009D03811108C060E772E0CE0107960E9412
:100D40009D03882329F061E083E00E945B01C6CE09
:100D5000CE0107960E9495030E942B03A3CEE5E8DF
:100D6000F2E01382128288EE93E0A0E0B0E0848388
:100D70009583A683B7838AE092E09183808385EC94
:100D800090E09587848784EC90E09787868780EC55
:100D900090E0918B808B81EC90E0938B828B82EC46
:100DA00090E0958B848B86EC90E0978B868B118EF0
:100DB000128E138E148E0895EE0FFF1F881F8BBFA7
:100DC0000790F691E02D19940F931F93CF93DF9323
:100DD0008230910510F482E090E0E0912403F091DC
:100DE000250330E020E0B0E0A0E0309799F4211531
:100DF000310509F44AC0281B390B24303105D8F5D8
:100E00008A819B816115710589F1FB01938382833E
:100E1000FE0111C040815181028113814817590799
:100E2000E0F04817590799F4109761F012960C9367
:100E3000129713961C933296CF01DF91CF911F9199
:100E40000F9108950093240310932503F4CF2115E7
:100E5000310551F04217530738F0A901DB019A011F
:100E6000BD01DF01F801C1CFEF01F9CF9093250358
:100E700080932403CDCFFE01E20FF31F8193919362
:100E80002250310939832883D7CF20912203309112
:100E90002303232B41F4209102023091030230936B
:100EA0002303209322032091000230910102211597
:100EB000310541F42DB73EB740910402509105022F
:100EC000241B350BE0912203F0912303E217F30773
:100ED000A0F42E1B3F0B2817390778F0AC014E5FAA
:100EE0005F4F2417350748F04E0F5F1F50932303C1
:100EF00040932203819391939FCFF0E0E0E09CCF59
:100F0000CF93DF930097E9F0FC01329713821282AE
:100F1000A0912403B0912503ED0130E020E010976B
:100F2000A1F420813181820F931F209122033091FF
:100F300023032817390709F061C0F0932303E093D6
:100F40002203DF91CF910895EA01CE17DF07E8F57C
:100F50004A815B819E0141155105B1F7E901FB838F
:100F6000EA8349915991C40FD51FEC17FD0761F42D
:100F7000808191810296840F951FE901998388836E
:100F8000828193819B838A83F0E0E0E012968D91C9
:100F90009C9113970097B9F52D913C911197CD0134
:100FA0000296820F931F209122033091230328176A
:100FB000390739F6309751F5109225031092240322
:100FC000B0932303A0932203BCCFD383C283408179
:100FD0005181840F951FC817D90761F44E5F5F4F89
:100FE00088819981480F591F518340838A819B8151
:100FF000938382832115310509F0B0CFF093250347
:10100000E09324039ECFFD01DC01C0CF1382128246
:10101000D7CF4F925F926F927F928F929F92AF92B3
:10102000BF92CF92DF92EF92FF920F931F93CF93D5
:10103000DF938C01009799F4CB01DF91CF911F9141
:101040000F91FF90EF90DF90CF90BF90AF909F9067
:101050008F907F906F905F904F900C94E406FC010E
:10106000E60FF71F9C0122503109E217F30708F43D
:10107000AEC0D901CD91DC911197C617D70720F1E9
:10108000C530D10578F0CE0104978617970750F048
:10109000C61BD70B2297C193D1936D937C93CF013D
:1010A0000E948007C801DF91CF911F910F91FF909F
:1010B000EF90DF90CF90BF90AF909F908F907F90F8
:1010C0006F905F904F9008955B01AC1ABD0A4C0180
:1010D0008C0E9D1EA0912403B0912503512C412C10
:1010E000F12CE12C109731F580912203909123038C
:1010F0008815990509F05CC04616570608F058C0D7
:101100008091000290910102009741F48DB79EB743
:101110004091040250910502841B950BE817F907D2
:1011200008F055C0F0932303E0932203F901718383
:101130006083B8CF8D919C91119712966C90129705
:1011400013967C901397A815B90559F56C0142E0E8
:10115000C40ED11CCA14DB0420F1AC014A195B098E
:10116000DA011296159780F0628273825183408370
:10117000D9016D937C93E114F10471F0D7011396BA
:10118000FC93EE9312978ECF22968C0F9D1FF90140
:1011900091838083F301EFCFF0932503E093240341
:1011A00081CF4816590608F42C017D01D3019ACF4E
:1011B000CB010E94E4067C01009749F0AE01B80122
:1011C0000E94EA08C8010E94800787016BCF10E0E7
:1011D00000E068CFFB01DC0102C001900D9241509C
:1011E0005040D8F70895FB01DC018D9101908019E2
:1011F0000110D9F3990B0895FB01DC0101900D92C8
:0A1200000020E1F70895F894FFCFF5
:10120A0000002603800000000000BE02E80115026B
:10121A000B038602240278024F6E004F6E20004CA8
:10122A0069676874206F6E004C6967687473206F11
:10123A006E004C69676874206F6E20004C6967689D
:10124A007473206F6E20004F6666004F666620003A
:10125A004C69676874206F6666004C6967687473C6
:10126A00206F6666004C69676874206F66662000A6
:0C127A004C6967687473206F6666200082
:00000001FF
